:100000000C9477010C949F010C949F010C949F0118
:100010000C949F010C949F010C949F010C949F01E0
:100020000C949F010C949F010C941A140C94E612EA
:100030000C949F010C949F010C949F010C949F01C0
:100040000C949F010C949F010C949F010C949F01B0
:100050000C949F010C949F010C949F010C942B0E07
:100060000C949F010C946A150C949C150C949F01A0
:100070000C949F010C949F010C949F010C949F0180
:100080000C949F010C949F010C949F010C949F0170
:100090000C949F010C949F010C949F010C949F0160
:1000A0000C949F010C949F010C949F010E0D130D55
:1000B000180D220D2C0D760D760D760D360D400D9A
:1000C0004A0D540D610D760D690D970D9A0D890D30
:1000D0008D0D930DBB0DBB0DBB0D9E0DA20DA60D81
:1000E000AC0DB00DBB0DB60D0000000200090F00F5
:1000F00000030401000C00000000000000000000EC
:1001000000000000000004080201104080401020A0
:1001100040804080080204018040201002011080CD
:1001200010204040040404040403040502020202F7
:100130000403020202020606060606060404020280
:10014000020400000000250028002B002E003100D2
:1001500000000000240027002A002D00300000C10C
:100160008081C1120100020200004041233780005B
:10017000010102000112010002000000404123378A
:100180008000010102000141726475696E6F204CAC
:100190004C430041726475696E6F204D6963726FE4
:1001A0000004030904080B00020202010009040014
:1001B00000010202000005240010010524010101D4
:1001C00004240206052406000107058103100040EF
:1001D00009040100020A00000007050202400000B5
:1001E0000705830240000000000000000000002A14
:1001F0002B280000000000000000000000000000AC
:10020000000000000000002C9EB4A0A1A2A434A60F
:10021000A7A5AE362D3738271E1F202122232425DF
:1002200026B333B62EB7B89F8485868788898A8B94
:100230008C8D8E8F909192939495969798999A9B86
:100240009C9D2F3130A3AD350405060708090A0B24
:100250000C0D0E0F101112131415161718191A1B66
:100260001C1DAFB1B0B5000904020001030000007D
:1002700009210101000122650007058403400001F6
:1002800005010902A1010901A10085010509190162
:100290002903150025019503750181029501750556
:1002A000810305010930093109381581257F750859
:1002B00095038106C0C005010906A1018502050755
:1002C00019E029E7150025017501950881029501BE
:1002D0007508810395067508150025650507190041
:1002E00029658100C000410C4D15CC15461711241D
:1002F0001FBECFEFDAE0DEBFCDBF12E0A0E0B1E07D
:10030000EAE4F5E302C005900D92A63EB107D9F7E5
:1003100028E0A6EEB2E001C01D92AB3AB207E1F7C9
:1003200012E0CEEED2E004C02297FE010E944018F7
:10033000C63ED107C9F70E94230F0C94A31A0C9450
:100340000000FC01DB0182818C93838111968C93E8
:100350001197848112968C931297858113968C93B2
:100360001397868114968C931497878115968C9396
:100370001597808516968C931697818517968C9382
:1003800088E090E00895FC01DB014C9150E060E0D2
:1003900070E0428353836483758311968C91119727
:1003A000582B428353836483758312968C911297E2
:1003B000682B428353836483758313968C911397C0
:1003C000782B428353836483758314964C911497DE
:1003D00050E060E070E04683578360877187159630
:1003E0008C911597582B4683578360877187169693
:1003F0008C911697682B4683578360877187179671
:100400008C91782B468357836087718788E090E0D2
:10041000089586E191E0089584E291E008956F9255
:100420007F928F929F92AF92BF92CF92DF92EF9284
:10043000FF920F931F93CF93DF93FC01DB018C910D
:1004400090E09383828311962C911197922B938342
:10045000828312964D915D916D917C9115975D010E
:1004600086E0A80EB11C8A019B010A5F1F4F2F4F27
:100470003F4F6501CA1ADB0AE12CF12CC016D106E8
:10048000E206F30640F4E501F9905E01CE01029721
:10049000EC01F882EECFED01C40FD51F1D82CD0116
:1004A000059695838483ED01C40FD51FCE80DF8030
:1004B000E884F984465F5F4F3D01640E751E8A0132
:1004C000222717FD2095322F0C0D1D1D2E1D3F1DBF
:1004D00043018A1A9B0AA12CB12C80169106A20610
:1004E000B30640F4E30169913E01CE010297EC01AD
:1004F0006883EECFC40ED51E9D012C0D3D1DC90194
:100500000197EC011882415051094A0F5B1F578334
:100510004683E901088119812A813B81D4E0CD0E0F
:10052000D11C3D016C0C7D1CA601662757FD609512
:10053000762F400F511F621F731F43018A1A9B0AB7
:10054000A12CB12C84169506A606B70640F4E3014B
:10055000F9903E01CE010297EC01F882EECF0C0D2E
:100560001D1D9D01200F311FC9010197EC0118824B
:10057000D1E0CD1AD108CA0EDB1ED186C086D901C2
:1005800011968C91119712964C91129750E060E061
:1005900070E0BA0155274427582B8C91482B1396AD
:1005A0008C91782B4287538764877587C80104969E
:1005B000DF91CF911F910F91FF90EF90DF90CF903F
:1005C000BF90AF909F908F907F906F90089585E43B
:1005D00091E008958EE591E00895AF92BF92CF9299
:1005E000DF92EF92FF921F93CF93DF939C01FB0169
:1005F0008081D90112968C9381819281A381B481EB
:100600005B01C5E0AC0EB11CAC01BD014B5F5F4F9F
:100610006F4F7F4F6501CE1ADF0AE12CF12CC41613
:10062000D506E606F70650F4E501D9905E017E0195
:10063000D2E0ED1AF108E701D882ECCFEF01C80F44
:10064000D91F1C823496E901FC83EB830596DF9168
:10065000CF911F91FF90EF90DF90CF90BF90AF9020
:1006600008958FE791E0089582E991E0089589E483
:1006700092E0089583EB91E008958F929F92AF925C
:10068000BF92CF92DF92EF92FF920F931F93CF937F
:10069000DF93EB01FC0162817381848195816B01A1
:1006A0007C0117E1F594E794D794C7941A95D1F794
:1006B000DD24EE24FF24C114D104E104F10431F05F
:1006C000F0E8CF0EF3E0DF1EE11CF11C1882198266
:1006D0001A828B019C0145E0000F111F221F331F5E
:1006E0004A95D1F70B838B019C0153E035952795F3
:1006F000179507955A95D1F70C838B019C01EBE078
:100700003595279517950795EA95D1F70D834601FD
:100710005701F4E0880C991CAA1CBB1CFA95D1F770
:100720008B019C01A3E13595279517950795AA950F
:10073000D1F70F7008290E8346015701B4E0B59434
:10074000A79497948794BA95D1F720E030E0A90157
:100750000E94531787FD02C08F8203C0882D8068D6
:100760008F8388E090E0DF91CF911F910F91FF90F0
:10077000EF90DF90CF90BF90AF909F908F900895B3
:100780000F931F93FC01DB0113960C9113970295B5
:100790000695077010E020E030E002831383248385
:1007A000358314964C91149750E060E070E093E02C
:1007B000440F551F661F771F9A95D1F7402B512B79
:1007C000622B732B428353836483758315960C913C
:1007D000159710E020E030E08BE0000F111F221F82
:1007E000331F8A95D1F7042B152B262B372B028329
:1007F00013832483358316964C9116974F7050E0DF
:1008000060E070E093E1440F551F661F771F9A95D3
:10081000D1F7402B512B622B732B4283538364837C
:10082000758316968C91169782958F7017960C91FA
:1008300017970F7710E020E030E094E0000F111FD1
:10084000221F331F9A95D1F7082B01151105210599
:10085000310599F0005813402109310987E1000F53
:10086000111F221F331F8A95D1F7042B152B262B1E
:10087000372B028313832483358317964C9140785A
:1008800050E060E070E0742F66275527442782818E
:100890009381A481B581842B952BA62BB72B8283C2
:1008A0009383A483B58388E090E01F910F9108950E
:1008B00084ED91E0089585EE91E008950F931F93E4
:1008C000CF93DF93EC018C010A5F1F4FC8010E9498
:1008D000C003EC85FD85C801DF91CF911F910F9179
:1008E0000994FC0186859785089584ED91E008952B
:1008F00085EE91E008958E579B4FFC01808108950D
:10090000AF92BF92CF92DF92EF92FF920F931F931D
:10091000CF93DF93EC017B018A81DB018C938B8188
:1009200011968C93EC81FD81DF010D900020E9F799
:10093000CD0101976C01CE1ADF0AC601A0E0B0E03C
:10094000FB0182839383A483B5836C817D81A6019F
:10095000C70106960E943C19EE81FF81DF010D90D0
:100960000020E9F7CD0101975C01AE1ABF0AF7013B
:10097000EC0DFD1D850120E030E006831783208704
:1009800031879AE0C90ED11C6E817F81A501C70114
:100990008C0D9D1D0E943C19CA0CDB1CE885F98555
:1009A000DF010D900020E9F7CD0101975C01AE1A3F
:1009B000BF0AF701EC0DFD1D850120E030E000834A
:1009C00011832283338394E0C90ED11C6885798515
:1009D000A501C7018C0D9D1D0E943C19AC0CBD1CCE
:1009E0003A852B859C858D85F701EA0DFB1D3083AB
:1009F000218392838383C5010496DF91CF911F9158
:100A00000F91FF90EF90DF90CF90BF90AF9008953F
:100A10000F931F93CF93DF93DC01FB0112968C9110
:100A20001297808313968D919C911497EC010990F5
:100A30000020E9F72197C81BD90B8E0120E030E098
:100A4000018312832383348313966D917C911497D1
:100A5000AE01CF0105960E943C19CE010596DF91AB
:100A6000CF911F910F910895BF92CF92DF92EF9295
:100A7000FF920F931F93CF93DF93EC017B018A8149
:100A8000DB018C9311961C92119712961C9212976F
:100A900013961C92FB01379640E024E030E05A8127
:100AA000C90104964517E0F4AF81B88524E0429F60
:100AB000A00DB11D11246C9111965C9111971296A5
:100AC0003C91129713962C91DF0113976C9311961A
:100AD0005C9311963C9320839C014F5F3496DFCF4B
:100AE0004985F701E20FF31F4083118212821382BE
:100AF00020E03985F701E80FF91F04962317B0F4B9
:100B0000AE85BF8534E0239FA00DB11D11246C91EB
:100B100011965C91119712964C91129713963C91F5
:100B200060835183428333832F5FE3CF28892083FF
:100B3000118212821382B12C2889B21698F54B2D9E
:100B400050E0440F551FEB89FC89E40FF51F01901D
:100B5000F081E02DDF010D900020E9F79D0121508B
:100B600031096901CE1ADF0AF701E80FF91F860182
:100B700020E030E000831183228333838C010C5FFB
:100B80001F4FEB89FC89E40FF51F60817181A6017D
:100B9000C701800F911F0E943C19C601800F911F51
:100BA000B394CACFDF91CF911F910F91FF90EF9037
:100BB000DF90CF90BF9008954F925F927F928F9277
:100BC0009F92AF92BF92CF92DF92EF92FF920F93DC
:100BD0001F93CF93DF93EC018B01DB01FC908A81A3
:100BE0008F1550F4B4E0FB9EB00111248F819885DD
:100BF0000E94721898878F83FA82F8013796F12C39
:100C000044E050E09E012D5F3F4F8A81BA016C5F46
:100C10007F4F6B01F81660F5408150E060E070E0B6
:100C2000742F662755274427DF0113978C91482B93
:100C300011968C91582B11968C91682B4B835C8369
:100C40006D837E83A6016F81788584E0F89E600DB8
:100C5000711D1124D9018D909D90AD90BC90DB0148
:100C60008D929D92AD92BC921397F3943496CDCF12
:100C7000F801E40FF51FF08089858F1550F484E0AA
:100C8000F89EB00111248E859F850E9472189F875F
:100C90008E879601F98680E0FE013A969985D80103
:100CA000A20FB31FA9014C5F5F4F6A01891748F576
:100CB00011969C91119712964C91129750E060E01A
:100CC00070E0BA0155274427592B9C91492B139664
:100CD0009C91792B4A875B876C877D879601AE85CF
:100CE000BF8594E0899FA00DB11D112440815181E1
:100CF000628173814D935D936D937C9313978F5FA6
:100D0000CDCFFC9088898F1550F46F2D70E0660F61
:100D1000771F8B899C890E9472189C8B8B8BC601D4
:100D2000F88A712C2E0151E1450E511C288972164A
:100D300008F044C0F801E80FF91FC080D180E280BC
:100D4000F3800496F801E80FF91FAC01662757FD00
:100D50006095762F4C0D5D1D6E1D7F1D9F01201B24
:100D6000310B4901A12CB12C84169506A606B706B5
:100D700038F4B1909F0122503109D901BC92EECFD5
:100D8000C80ED91EF801EC0DFD1D319710829C0193
:100D900021503109200F311F3A8B298BC6013B8925
:100DA0002C89E32FF22FE70DF11DE70DF11DD20184
:100DB0002D913C91318320837394B8CFDF91CF91F3
:100DC0001F910F91FF90EF90DF90CF90BF90AF9069
:100DD0009F908F907F905F904F9008958F929F92F9
:100DE000AF92BF92CF92DF92EF92FF920F931F9339
:100DF000CF93DF93EC01CA80DB80EC80FD8020E0A4
:100E000030E0A901C701B6010E94D51718161CF4DD
:100E1000C701B60103C0C701B60190580E94571719
:100E20001F921F921F922FEF2F93A12CB12C6501BF
:100E300019E1E12EF12C00E010E020E030E0A90102
:100E40000E94A3106B017C018A809B80AC80BD80D6
:100E50000F900F900F900F9020E030E0A901C50196
:100E6000B4010E94D517181634F461E085E10E94A0
:100E7000F50DB60119C020E030E0A901C501B401AB
:100E80000E94531761E087FF0AC085E10E94F50DBB
:100E900060E070E085E00E94E80CB6010AC085E1E0
:100EA0000E94F50D60E070E085E00E94E80C60E0D3
:100EB00070E086E0DF91CF911F910F91FF90EF904E
:100EC000DF90CF90BF90AF909F908F900C94E80CE4
:100ED000AF92BF92CF92DF92EF92FF920F931F9348
:100EE000CF93DF9300D000D01F92CDB7DEB78C0137
:100EF0006B01643671053CF0FC01EE57FB4F8081BD
:100F0000882309F479C0DA01ED91FC910190F08118
:100F1000E02DB801655E7D4FCA0109957C0158013D
:100F2000BCEEAB1ABDEFBB0A2FEFF50120832EEF0D
:100F3000319620833196808331969083890F8095F6
:100F4000319680833196C0823196D08285E090E0E0
:100F500020E030E0A701495F5F4F8417950750F408
:100F6000F801E80FF91FEC5EFD4F6081260F311D7F
:100F70000196F3CFF8E0EF0EF11C400F511FFA017C
:100F8000EC5EFD4F2095208321E0E21622E0F20680
:100F9000C8F46501C6018A199B098E159F0584F462
:100FA000D80112968D919C911397F60161916F0172
:100FB000DC01ED91FC910190F081E02D0995EACFE3
:100FC000C7011CC081E892E09A83898383E08B8308
:100FD00086E092E09D838C83D801ED91FC91019095
:100FE000F081E02DAE014F5F5F4F67E070E0C80118
:100FF00009958FEF9FEF02C080E090E00F900F9077
:101000000F900F900F90DF91CF911F910F91FF9054
:10101000EF90DF90CF90BF90AF90089561E085E0B2
:101020000E94BC0D61E086E00E94BC0D61E085E19C
:101030000E94BC0D61E085E10E94F50D60E070E06A
:1010400085E00E94E80C60E070E086E00E94E80C19
:101050004091FA025091FB026091FC027091FD02F6
:1010600026E08091F8029091F9020E9419101092E6
:101070006F0710926E07109271071092700710920E
:101080007507109274071092730710927207ECE3C1
:10109000F7E080E090E021913191232B81F4FC0175
:1010A000EE0FFF1FE45CF84F26EE32E03183208321
:1010B0008C599F4F9093E9028093E802089501961E
:1010C0008931910541F708950F931F93CF93DF93D3
:1010D000CDB7DEB72A970FB6F894DEBF0FBECDBFEF
:1010E0008C0189E692E09A8389831B821C821D828F
:1010F0001E821F82188619861A86D801ED91FC91EE
:101100000190F081E02DAE014F5F5F4F6AE070E02B
:10111000C80109950E94750EF80160877187828762
:1011200093872A960FB6F894DEBF0FBECDBFDF912E
:10113000CF911F910F9108954F925F926F927F927E
:101140008F929F92AF92BF92CF92DF92EF92FF92D7
:101150000F931F93CF93DF93CDB7DEB72E970FB6C4
:10116000F894DEBF0FBECDBF8C0185E792E09A8375
:1011700089831C821B828EE392E09E838D839887F5
:101180008F839A8789871B861C861D861E86580139
:1011900082E3A80EB11C7801412C42E0542E612C50
:1011A000712C6701ACEECA1AABEFDA0AD601ED91E9
:1011B000FC913097B9F1848195819C838B838081E8
:1011C00091819E838D8382819381DC01ED91FC91DD
:1011D0000480F581E02D099598878F83D601ED91E4
:1011E000FC9182819381DC01ED91FC910680F78175
:1011F000E02D09959A8789874B865C866D867E8669
:10120000F80180819181F601A081B18118966D91DC
:101210007C911997DC01ED91FC91AE014F5F5F4F1E
:10122000C8010995B2E0EB0EF11CEA14FB0409F0C9
:10123000B8CF7801412C32E0532E612C712C67011C
:10124000EAEBCE1AEBEFDE0AF601A081B18110972E
:10125000E1F112968D919C9113979C838B83149648
:101260008D919C9115979E838D83ED91FC911197A3
:101270000480F581E02DCD01099598878F83D601F3
:101280008D919C91DC01ED91FC910680F781E02D20
:1012900009959A8789874B865C866D867E86D801FC
:1012A000ED91FC9180809180F60180819181DC013B
:1012B000ED91FC910280F381E02D0995AE014F5F25
:1012C0005F4FBC01C801F4010995F2E0EF0EF11C7B
:1012D000EA14FB0409F0B3CFF801EE57FB4F81E0AD
:1012E00080832E960FB6F894DEBF0FBECDBFDF9180
:1012F000CF911F910F91FF90EF90DF90CF90BF9013
:10130000AF909F908F907F906F905F904F900895D7
:101310008F929F92AF92BF92CF92DF92EF92FF9205
:101320000F931F93CF93DF93CDB7DEB72A970FB6F6
:10133000F894DEBF0FBECDBF8C015B0189E692E061
:101340009A8389831B821C821D821E821F821886BB
:1013500019861A860E94750E6B017C01F801808542
:101360009185A285B385C81AD90AEA0AFB0AB50194
:10137000CE0101960E94C30158EE852E53E0952EB2
:10138000A12CB12CC701B601A50194010E94FD1743
:1013900069017A019B01AC018B819C81AD81BE8189
:1013A0008C0D9D1DAE1DBF1D8B839C83AD83BE83A5
:1013B00060E472E48FE090E00E94D917CF80D88477
:1013C000E984FA84C60ED71EE81EF91ECF82D8869D
:1013D000E986FA860E94750ECB80DC80ED80FE8067
:1013E000F1E0CF1AD108E108F108A50194010E94AB
:1013F000FD1749015A019B01AC01C818D908EA0838
:10140000FB08F801C486D586E686F786CF80D884A7
:10141000E984FA84F6E3DF1AF5E6EF0AF4ECFF0A52
:1014200060E472E48FE090E00E94D917C61AD70AF0
:10143000E80AF90AF801C08AD18AE28AF38AB80177
:10144000605F7F4FC8010C960E94BA0C0E94750E17
:10145000F801E957FB4F60837183828393832A9657
:101460000FB6F894DEBF0FBECDBFDF91CF911F91B5
:101470000F91FF90EF90DF90CF90BF90AF909F9033
:101480008F9008952F923F924F925F926F927F922A
:101490008F929F92AF92BF92CF92DF92EF92FF9284
:1014A0000F931F93CF93DF93CDB7DEB760970FB63F
:1014B000F894DEBF0FBECDBF4C010E94750E6B01CC
:1014C0007C01940129573B4F3E832D83F901808194
:1014D0009181A281B381A7019601281B390B4A0B88
:1014E0005B0BDA01C901893F9A42A105B10510F0F1
:1014F00035971082A40148585B4F588B4F87DA010B
:101500008D919C91892B79F0F401E557FB4F8081F7
:101510009181A281B3818C159D05AE05BF0518F49C
:10152000FA01118210823401F0E86F1AFBEF7F0A92
:10153000940124583B4F3A832983A4014E575B4FB3
:1015400058874F832C5E3F4F3C872B87435F5F4F0D
:101550005E874D87840106581B4F1601270154E111
:10156000250E311C411C511C540184E1A80EB11CF4
:10157000940122583B4F3C832B83A40145575B4F7A
:101580005A874987D40112968D919C911397DC015B
:10159000ED91FC910680F781E02D09959C0197FD66
:1015A0002DC1F30180819181820F931F91838083EC
:1015B000AF85B8894D915C9147305105E1F4EB81DD
:1015C000FC8180819181AC014F5F5F4F51834083EB
:1015D000F401E80FF91F248BD8018D919C9111978C
:1015E00001978D939C93892B09F0BECF28E030E0C2
:1015F000EF85F88987C04115510519F52F3F310551
:1016000069F481E090E0AF85B8898D939C93E9857A
:10161000FA852082318242825382B4CF0E94750EB5
:101620006C197D098E099F09663071058105910548
:1016300008F49ACFF401EE57FB4F10828EEF9FEF24
:1016400003C14130510599F42E3F310519F482E070
:1016500090E02FC0EF85F88911821082AF81B885A4
:101660008C91811181CFC4010E9464088BCF4230DC
:10167000510589F4F80131832083AB81BC811D922F
:101680001C9283E090E0EF85F88991838083D301F9
:101690002D933C9377CF4330510581F4322F22278D
:1016A000F80180819181820F931F9183808384E070
:1016B00090E0AF85B8898D939C9364CF44305105F9
:1016C00099F460E071E00E94E9178F3F910539F4C9
:1016D00085E090E0EF85F8899183808353CFAF85D3
:1016E000B8891D921C924ECF4530510571F4E981A5
:1016F000FA813183208386E090E0AF85B8898D93AD
:101700009C93F301318320833DCF46305105D1F4C2
:10171000322F2227A981BA818D919C911197820F36
:10172000931F8D939C9327E030E0EF85F8893183F8
:101730002083D8018D919C91892B09F015CF28E049
:1017400030E0E0CF4830510509F00ECFAF85B889C1
:101750001D921C9260E071E00E94E9178F3F910595
:1017600009F002CFA981BA81ED91FC913097B1F4D3
:10177000C4010E946408C4010E949C08F401ED5752
:10178000FB4FC082D182E282F382ED81FE81C08272
:10179000D182E282F3828FEF9FEF56C0EA30F105EB
:1017A00029F4B501C4010E948809ECCEE630F105A8
:1017B00051F4B5018B859C850E94DC0581E0AD85E7
:1017C000BE858C93DFCEEB30F10521F4EF81F885F7
:1017D0001082D8CEE154FE4FEE0FFF1FE80DF91D29
:1017E00080819181009709F4BFCEDC01ED91FC91DD
:1017F0000190F081E02DB5010995C4CEF401EE57BA
:10180000FB4F80818823F1F084010D571B4FF801B5
:1018100080819181A281B381A7019601281B390B98
:101820004A0B5B0BDA01C901853C9940A105B10562
:1018300048F0C4010E946408D801CD92DD92ED9277
:10184000FC92139780E090E060960FB6F894DEBFAC
:101850000FBECDBFDF91CF911F910F91FF90EF9001
:10186000DF90CF90BF90AF909F908F907F906F90C0
:101870005F904F903F902F90089586EF92E00C94E8
:10188000420A85EA92E09093F7028093F6028DEF88
:1018900097E09093F9028093F80280E091EEA0E047
:1018A000B0E08093FA029093FB02A093FC02B09305
:1018B000FD02109278078DE892E09093870780935D
:1018C00086071092880710928E0710928D0710924B
:1018D0008F07109295071092940710929607109216
:1018E0009A0710929907EAE0F7E01192119287E0C7
:1018F000EC33F807D1F7ECE3F7E01192119287E0AF
:10190000EE36F807D1F7EAE0F3E0119285E0EA302D
:10191000F807D9F7EAE0F5E0119287E0EA30F80736
:10192000D9F780910A0190910B012FEA32E03093B0
:10193000E7022093E60229E932E03093ED0220939A
:10194000EC021092EE021092EF021092F00210924E
:10195000F1022EEE36E03093F3022093F20221E002
:1019600030E03093F5022093F4029093EB028093E1
:10197000EA020895CF92DF92EF92FF920F931F93A6
:10198000CF93DF938C01EB01688179818A819B8100
:1019900020E03AEC4AE95BE30E94FD17F801C080C1
:1019A000D180E280F380C20ED31EE41EF51EC082F9
:1019B000D182E282F382688379838A839B83DF9179
:1019C000CF911F910F91FF90EF90DF90CF900895EE
:1019D0001F93CF93DF93182FEB0161E00E94BC0DA2
:1019E000209711F460E004C0CF3FD10539F461E0E5
:1019F000812FDF91CF911F910C94F50DE12FF0E035
:101A0000E851FF4F449150E0FA013197EF30F10572
:101A100008F06CC0EA5AFF4F0C943E1884B58068F9
:101A200084BDC7BD68C084B5806284BDC8BD63C0C5
:101A300080918000806880938000D0938900C0935B
:101A4000880059C080918000806280938000D0938C
:101A50008B00C0938A004FC0809180008860809383
:101A60008000D0938D00C0938C0045C08091900081
:101A7000806880939000D0939900C09398003BC0F9
:101A800080919000806280939000D0939B00C093DF
:101A90009A0031C080919000886080939000D0932C
:101AA0009D00C0939C0027C08091C00080688093F7
:101AB000C0008091C0008F7B8093C000C093CF0096
:101AC0001AC08091C00080628093C000C093D00093
:101AD00012C08091C20088608093C2008091C200D1
:101AE0008B7F8093C200C093D20005C0C038D1055F
:101AF0000CF07DCF77CFDF91CF911F91089590E0CB
:101B0000FC013197EF30F105B0F5EB59FF4F0C9424
:101B10003E18809180008F7703C0809180008F7D78
:101B200080938000089580918000877FF9CF84B5ED
:101B30008F7702C084B58F7D84BD08958091900019
:101B40008F7707C0809190008F7D03C080919000B7
:101B5000877F8093900008958091C0008F7703C0A5
:101B60008091C0008F7D8093C00008958091C20055
:101B7000877F8093C2000895CF93DF9390E0FC01AC
:101B8000EA5FFE4F2491FC01EC5DFE4F84918823B7
:101B900049F190E0880F991FFC01E05BFE4FA59191
:101BA000B4918E5B9E4FFC01C591D4919FB761119A
:101BB00008C0F8948C91209582238C93888182238D
:101BC0000AC0623051F4F8948C91322F30958323FF
:101BD0008C938881822B888304C0F8948C91822B0B
:101BE0008C939FBFDF91CF9108950F931F93CF9355
:101BF000DF931F92CDB7DEB7282F30E0F901E8510F
:101C0000FF4F8491F901EA5FFE4F1491F901EC5DF9
:101C1000FE4F04910023C9F0882321F069830E94BC
:101C20007F0D6981E02FF0E0EE0FFF1FEE5BFE4FAE
:101C3000A591B4919FB7F8948C91611103C0109550
:101C4000812301C0812B8C939FBF0F90DF91CF9197
:101C50001F910F9108951F920F920FB60F921124AA
:101C60002F933F938F939F93AF93BF9380919C0744
:101C700090919D07A0919E07B0919F0730919B077F
:101C800023E0230F2D3720F40196A11DB11D05C0BF
:101C900026E8230F0296A11DB11D20939B07809378
:101CA0009C0790939D07A0939E07B0939F078091F8
:101CB000A0079091A107A091A207B091A307019658
:101CC000A11DB11D8093A0079093A107A093A20727
:101CD000B093A307BF91AF919F918F913F912F91A7
:101CE0000F900FBE0F901F9018952FB7F89460912A
:101CF0009C0770919D0780919E0790919F072FBF31
:101D000008953FB7F8948091A0079091A107A09102
:101D1000A207B091A30726B5A89B05C02F3F19F0D5
:101D20000196A11DB11D3FBF6627782F892F9A2FDD
:101D3000620F711D811D911D42E0660F771F881F84
:101D4000991F4A95D1F70895CF92DF92EF92FF92B3
:101D5000CF93DF936B017C010E94810EEB01C114D4
:101D6000D104E104F10489F00E940F160E94810E53
:101D70006C1B7D0B683E734090F381E0C81AD1085C
:101D8000E108F108C851DC4FEACFDF91CF91FF9015
:101D9000EF90DF90CF900895789484B5826084BDF1
:101DA00084B5816084BD85B5826085BD85B581605F
:101DB00085BDEEE6F0E0808181608083E1E8F0E0BF
:101DC0001082808182608083808181608083E0E8EE
:101DD000F0E0808181608083E1E9F0E080818260D1
:101DE0008083808181608083E0E9F0E08081816090
:101DF0008083E1ECF0E08081846080838081826078
:101E00008083808181608083E3ECF0E08081816069
:101E10008083E0ECF0E0808182608083E2ECF0E09F
:101E2000808181608083EAE7F0E080818460808344
:101E300080818260808380818160808380818068EE
:101E40008083089508950E94CC0E0E94220F84EA98
:101E500097E00E9470140E940E08C3E6DFE00E9423
:101E60003D0C2097E1F30E94630FF9CFFC01818DB7
:101E7000228D90E0805C9F4F821B91098F73992780
:101E80000895FC01918D828D981731F0828DE80FB5
:101E9000F11D858D90E008958FEF9FEF0895FC016F
:101EA000918D828D981761F0828DDF01A80FB11D91
:101EB0005D968C91928D9F5F9F73928F90E00895B5
:101EC0008FEF9FEF089582EC95E1892B49F080E038
:101ED00090E0892B29F00E94C21581110C9400001A
:101EE0000895FC01848DDF01A80FB11DA35ABF4FD7
:101EF0002C91848D90E001968F739927848FA68909
:101F0000B7892C93A089B1898C9180648C93938D2F
:101F1000848D981306C00288F389E02D80818F7D1F
:101F200080830895CF93DF93EC01888D8823C9F0D7
:101F3000EA89FB89808185FD05C0A889B9898C91D2
:101F400086FD0FC00FB607FCF5CF808185FFF2CF6D
:101F5000A889B9898C9185FFEDCFCE010E94710FC0
:101F6000E7CFDF91CF910895CF92DF92FF920F9349
:101F70001F93CF93DF931F92CDB7DEB76C0181E043
:101F8000D60158968C9358975B969C915B975C967C
:101F90008C915C97981307C05096ED91FC915197E6
:101FA000808185FD2EC0F601038D10E00F5F1F4F6D
:101FB0000F731127F02EF601848DF81211C00FB6A1
:101FC00007FCF9CFD6015096ED91FC915197808195
:101FD00085FFF1CFC60169830E94710F6981EBCF44
:101FE000838DE80FF11DE35AFF4F6083D6015B96A6
:101FF0000C935B975296ED91FC9153978081806290
:102000000CC0D6015696ED91FC915797608350967F
:10201000ED91FC91519780818064808381E090E014
:102020000F90DF91CF911F910F91FF90DF90CF9094
:102030000895BF92CF92DF92EF92FF92CF93DF93FA
:10204000EC016A017B01B22EE889F98982E0808384
:10205000411581EE580761057105A1F060E079E056
:102060008DE390E0A70196010E94FD1721503109F0
:10207000410951095695479537952795211580E1D6
:10208000380798F0E889F989108260E874E88EE1F1
:1020900090E0A70196010E94FD17215031094109E6
:1020A00051095695479537952795EC85FD853083E1
:1020B000EE85FF852083188EEC89FD89B082EA8940
:1020C000FB89808180618083EA89FB8980818860C7
:1020D0008083EA89FB89808180688083EA89FB8923
:1020E00080818F7D8083DF91CF91FF90EF90DF9093
:1020F000CF90BF900895CF92DF92EF92FF920F930F
:102100001F93CF93DF936C017A01EB01E60EF71E6C
:1021100000E010E0CE15DF0561F06991D601ED9188
:10212000FC910190F081E02DC6010995080F191F5F
:10213000F1CFC801DF91CF911F910F91FF90EF90E8
:10214000DF90CF9008954F925F926F927F92AF92FF
:10215000BF92CF92DF92EF92FF920F931F93CF9394
:10216000DF93CDB7DEB729013A01621B730B840BF5
:10217000950B29893A894B895C892A193B094C09B5
:102180005D09298B3A8B4B8B5C8B9B01AC01698978
:102190007A898B899C890E94D917E418F508060969
:1021A0001709A80197010E941F182A0D3B1D4C1DFD
:1021B0005D1DCA01B901DF91CF911F910F91FF9071
:1021C000EF90DF90CF90BF90AF907F906F905F9037
:1021D0004F9008954091A8075091A9072091A60714
:1021E0003091A70742175307B4F49091E800957017
:1021F000E1F39091E80092FD19C08093F100809185
:10220000A8079091A90701968F739927892B19F434
:102210008EEF8093E8008091A8079091A90701961E
:102220009093A9078093A80781E0089580E008951E
:10223000CF92DF92FF920F931F93CF93DF931F9262
:10224000CDB7DEB7082F162F862F880F8E5F9983A4
:102250000E94EA1083E00E94EA10F02EC02E9981BD
:10226000D92E8C2D8F19811778F4F60184910E9454
:10227000EA10082F80E00E94EA108023FFEFCF1AB7
:10228000DF0A8111EECF01C081E00F90DF91CF9185
:102290001F910F91FF90DF90CF900895615030F023
:1022A0002091F100FC0120830196F8CF289A84E662
:1022B0008093AB0708952FB7FC012083F8946770D3
:1022C0006093E9000895CF93DF931F92CDB7DEB7F7
:1022D000682FCE0101960E945B118091F2009981D6
:1022E0009FBF0F90DF91CF910895FF920F931F939F
:1022F000CF93DF9300D0CDB7DEB7F62E8A01909151
:10230000AA07992311F057FF03C08FEF9FEF2BC04F
:10231000682FCE0101967A830E945B118091F200B2
:1023200090E0A8017A81801791070CF4AC01EF2DA1
:10233000F72FF40E84E6FE1639F0289A8093AB0747
:102340009091F1009193F7CF4115510521F08091C3
:10235000F200882321F089818FBFCA0104C08BE677
:102360008093E800F8CF0F900F90DF91CF911F91ED
:102370000F91FF900895CF93DF931F92CDB7DEB7F3
:1023800041E050E0BE016F5F7F4F0E9475110197E1
:1023900019F4898190E002C08FEF9FEF0F90DF91D9
:1023A000CF910895CF93DF931F92CDB7DEB7682FFB
:1023B000CE0101960E945B119091E800892F8072F6
:1023C00095FF04C09091F20080E4891B99819FBF22
:1023D0000F90DF91CF9108956F927F928F929F928D
:1023E000AF92BF92CF92DF92EF92FF920F931F9323
:1023F000CF93DF931F92CDB7DEB7782E7B01C42E2B
:10240000B52E8091AA07882369F0042F152F8AEF33
:10241000D82E872D8072982E9AE3A92E872D80744E
:10242000882E11C08FEF9FEF57C0872D0E94D211C9
:10243000682E81110CC0DA94A9F361E070E080E0AD
:1024400090E00E94A40E0115110579F73BC0282FDA
:1024500030E0021713070CF4602E672DCE010196B1
:102460000E945B118091E80085FF29C0262D30E095
:10247000021B130B992039F06A948FEF6816B1F0A4
:102480001092F100F9CFF701862D77FE07C0815039
:1024900058F094919093F1003196F9CF815020F04B
:1024A00091919093F100FACFE20EF31E8091E80033
:1024B00085FF0FC00115110511F481100AC0898133
:1024C0008FBFC1CF5D9A84E68093AC078C2D9B2D86
:1024D00003C0A092E800F3CF0F90DF91CF911F913E
:1024E0000F91FF90EF90DF90CF90BF90AF909F90B3
:1024F0008F907F906F9008951092E9001092A90735
:102500001092A8079093A7078093A6070895CF92EB
:10251000DF92FF920F931F93CF93DF9300D0CDB73D
:10252000DEB7F82E8A016B0101151105B1F0F60135
:10253000F7FE02C0849101C0808149835A830E94C2
:10254000EA1001501109FFEFCF1ADF0A49815A81C1
:102550008111EACF8FEF9FEF01C0CA010F900F905A
:10256000DF91CF911F910F91FF90DF90CF90089551
:102570001F93CF93DF931F92CDB7DEB7162F209115
:10258000E80022FFFCCF612F79830E944E118BEF70
:102590008093E800812F7981972F0F90DF91CF9161
:1025A0001F910895CF93DF931F92CDB7DEB71982A5
:1025B000CE0101960E94ED14CE0101960E942E16C6
:1025C000898190E00F90DF91CF9108951F920F9233
:1025D0000FB60F921124EF92FF920F931F932F9338
:1025E0003F934F935F936F937F938F939F93AF939B
:1025F000BF93EF93FF93CF93DF93CDB7DEB762978F
:10260000DEBFCDBF1092E9008091E80083FFEBC0F0
:1026100068E0CE010A960E944E1182EF8093E80096
:102620009A8597FF05C08091E80080FFFCCF03C02A
:102630008EEF8093E800892F807609F0B9C08B85F2
:10264000811105C01092F1001092F100C5C0282F31
:102650002D7F213009F4C0C0853049F48091E80015
:1026600080FFFCCF8C8580688093E300B5C0863006
:1026700009F076C02D85E888F988223071F580E070
:1026800090E02A8B0E947C120E94D21299E08E0167
:102690000F5F1F4FF801392F11923A95E9F799838F
:1026A0002A892A8391E09E8390E898879AEF9987F8
:1026B0002091A8073091A907275F3F4F3C832B83C8
:1026C0008D83C7010E947C1249E050E0B80180E090
:1026D0000E9487120E94D2127FC0C7012A8B0E94DB
:1026E0007C122A89223241F482E290E00E9439165B
:1026F000892B09F071C074C0213069F488899989E7
:10270000089711F42093A5078091A507811118C09F
:1027100065E771E01AC0233009F062C08C85882318
:1027200091F0823021F46DE083E991E006C08130C0
:1027300009F056C06BE087E891E00E9418114AC08A
:1027400063E671E002C061EA71E06115710509F4A8
:1027500047C0FB01449150E080E80E9487123CC0D2
:10276000873009F43DC0883021F481E08093F10086
:1027700033C0893089F5937099F5EFE5F1E081E098
:1027800021E096E38093E9002093EB0034913093AD
:10279000EC009093ED008F5F3196853099F78EE7CE
:1027A0008093EA001092EA008C858093AA0714C0F7
:1027B000888999890E947C128E85811105C0CE017D
:1027C0000A960E94F81406C0823051F4CE010A968F
:1027D0000E946116882321F08EEF8093E80003C0E9
:1027E00081E28093EB0062960FB6F894DEBF0FBED5
:1027F000CDBFDF91CF91FF91EF91BF91AF919F91AD
:102800008F917F916F915F914F913F912F911F9188
:102810000F91FF90EF900F900FBE0F901F901895A3
:102820008093E9008091F200882319F08AE3809375
:10283000E80008951F920F920FB60F9211242F9364
:102840003F934F935F936F937F938F939F93AF9338
:10285000BF93EF93FF938091E1001092E10083FF1B
:102860000FC01092E90091E09093EB001092EC0001
:1028700092E39093ED001092AA0798E09093F000F5
:1028800082FF1DC083E00E9410148091AC07882352
:1028900039F08091AC0781508093AC07882369F0B0
:1028A0008091AB07882359F08091AB0781508093CA
:1028B000AB07811104C0289802C05D98F1CFFF9149
:1028C000EF91BF91AF919F918F917F916F915F91A8
:1028D0004F913F912F910F900FBE0F901F90189521
:1028E0001092AA0781E08093D70080EA8093D800F5
:1028F00082E189BD09B400FEFDCF61E070E080E0B7
:1029000090E00E94A40E80E98093D8008CE0809330
:10291000E2001092E000559A209A5D982898089558
:10292000CF93DF931F92CDB7DEB76983DC01ED91C2
:10293000FC910280F381E02D41E050E0BE016F5F29
:102940007F4F09950F90DF91CF910895CF93DF933B
:10295000EC018C859D8597FF05C082E00E94BB112C
:102960009D878C878C859D85DF91CF91089583E02D
:102970000C941014FC018485958597FD06C082E0B7
:102980000E94631190E00196089582E00E94631115
:1029900090E00895FC018485958597FD05C02FEF93
:1029A0003FEF35872487089582E00C94BB11CF93C5
:1029B000DF93EC0180911301882331F083E00E94C2
:1029C000EC111816190634F081E090E09B838A839D
:1029D00080E090E0DF91CF910895FC0120812E5F8F
:1029E000208342E450E065EA71E080E80C948712AD
:1029F000FC0181819081913A59F4813209F03CC007
:102A000047E050E06CE071E080E00E94871243C034
:102A1000913291F5803239F467E070E08CE091E01A
:102A20000E94B81206C0823209F035C082818093BC
:102A3000130180910C0190910D01A0910E01B091B4
:102A40000F01803B9440A105B105C1F480911301B1
:102A500080FD14C087E797E79093010880930008F2
:102A60002BE088E190E00FB6F894A8958093600081
:102A70000FBE209360000FC080E0089588E10FB67C
:102A8000F89480936000109260000FBEA895109299
:102A900001081092000881E008951092B00710928A
:102AA000AF0788EE93E0A0E0B0E08093B107909389
:102AB000B207A093B307B093B4078BEC92E0909366
:102AC000AE078093AD078FEF9FEF9093BA07809387
:102AD000B90708951F920F920FB60F9211242F93EA
:102AE0008F939F93EF93FF93E0910D08F0910E0861
:102AF0008081E0911308F091140882FD12C090814A
:102B0000809116088F5F8F7320911708821751F0FC
:102B1000E0911608F0E0E350F84F958F8093160887
:102B200001C08081FF91EF919F918F912F910F9024
:102B30000FBE0F901F9018951F920F920FB60F9215
:102B400011242F933F934F935F936F937F938F93B2
:102B50009F93AF93BF93EF93FF938DEF97E00E9406
:102B6000710FFF91EF91BF91AF919F918F917F91E5
:102B70006F915F914F913F912F910F900FBE0F90EA
:102B80001F9018958DEF97E00E94360F21E0892B5A
:102B900009F420E0822F0895109200081092FF0798
:102BA00088EE93E0A0E0B0E08093010890930208E3
:102BB000A0930308B09304088BEB92E09093FE0778
:102BC0008093FD078DEC90E090930A0880930908AC
:102BD0008CEC90E090930C0880930B0888EC90E0CC
:102BE00090930E0880930D0889EC90E09093100864
:102BF00080930F088AEC90E090931208809311085C
:102C00008EEC90E0909314088093130810921608AD
:102C10001092170810921808109219080895089534
:102C2000FF920F931F93CF93DF93EC01F62EE88171
:102C3000F9810480F581E02D09958C01E881F98105
:102C40000680F781E02D6F2DCE010995C8019927E7
:102C5000DF91CF911F910F91FF900895FC0120818A
:102C60002F5F208349E150E067E672E080E80C9432
:102C7000871245E650E060E872E080E80C94871225
:102C8000EF92FF920F931F93CF93DF931F92CDB7D5
:102C9000DEB789838B017A0141E050E0BE016F5FAE
:102CA0007F4F84E00E94EC11A701B80184E40E94E8
:102CB000EC110F90DF91CF911F910F91FF90EF904A
:102CC0000895FC0191818081813A31F481E0913055
:102CD00091F0933089F411C0813271F49B3021F46A
:102CE00082818093150105C09A3031F482818093EE
:102CF000140181E00895089580E0089548E050E0CF
:102D000082E00C944016CF93DF93DC01683818F012
:102D1000E8E7E60F25C0E62FF0E067FF11C0E058B6
:102D2000F10981E090E001C0880FEA95EAF7149676
:102D30009C911497982B14969C931497E0E010C0E4
:102D4000E951FE4FE491EE2309F440C0E7FF08C0CB
:102D500014968C911497826014968C931497EF7745
:102D600016968C9116978E1741F117968C9117979E
:102D70008E1719F118968C9118978E17F1F01996F5
:102D80008C9119978E17C9F01A968C911A978E17F5
:102D9000A1F01B968C911B978E1779F080E090E044
:102DA000ED01C80FD91F2E81211102C0EE8305C08D
:102DB000019686309105A1F709C0BD016C5F7F4F78
:102DC000CD010E947E1681E090E008C081E090E095
:102DD00013969C938E93129780E090E0DF91CF91B1
:102DE0000895683818F0E8E7E60F25C0E62FF0E010
:102DF00067FF12C0E058F10921E030E001C0220F66
:102E0000EA95EAF72095DC0114963C911497322359
:102E100014963C93E0E00FC0E951FE4FE491EE239D
:102E200029F1E7FF08C0DC0114962C9114972D7F3F
:102E300014962C93EF7720E030E0EE2351F0DC0184
:102E4000A20FB31F16964C9116974E1302C01696FA
:102E50001C922F5F3F4F2630310579F7BC016C5F24
:102E60007F4F0E947E1681E090E0089580E090E020
:102E70000895FC0116821782108611861286138629
:102E80001482BC016C5F7F4F0C947E161092A608D2
:102E900010929D0810929C088BED92E090939B08F5
:102EA00080939A08089534D008F481E0089504D0FE
:102EB0006894B11174C0089557D088F09F5790F06E
:102EC000B92F9927B751A0F0D1F0660F771F881F4F
:102ED000991F1AF0BA95C9F712C0B13081F05ED0CF
:102EE000B1E008955BC0672F782F8827B85F39F06D
:102EF000B93FCCF3869577956795B395D9F73EF4AE
:102F000090958095709561957F4F8F4F9F4F089555
:102F1000990F0008550FAA0BE0E8FEEF16161706EA
:102F2000E807F907C0F012161306E407F50798F052
:102F3000621B730B840B950B39F40A2661F0232B6B
:102F4000242B252B21F408950A2609F4A140A695E7
:102F50008FEF811D811D089557FD9058440F551F17
:102F600059F05F3F71F04795880F97FB991F61F00B
:102F70009F3F79F087950895121613061406551F82
:102F8000F2CF4695F1DF08C0161617061806991FEE
:102F9000F1CF86957105610508940895E894BB27E3
:102FA00066277727CB0197F90895B2DF08F48FEFF2
:102FB0000895DB018F939F930E944418BF91AF91B6
:102FC000A29F800D911DA39F900DB29F900D112483
:102FD000089597FB072E16F4009407D077FD09D0CB
:102FE0000E944F1807FC05D03EF4909581959F4FA5
:102FF0000895709561957F4F0895A1E21A2EAA1B3E
:10300000BB1BFD010DC0AA1FBB1FEE1FFF1FA21798
:10301000B307E407F50720F0A21BB30BE40BF50B95
:10302000661F771F881F991F1A9469F7609570951E
:10303000809590959B01AC01BD01CF010895052EAF
:1030400097FB1EF400940E94361857FD07D00E948B
:10305000FD1707FC03D04EF40C943618509540959C
:10306000309521953F4F4F4F5F4F08959095809534
:10307000709561957F4F8F4F9F4F0895EE0FFF1F03
:103080000590F491E02D09940E946318A59F900D7E
:10309000B49F900DA49F800D911D11240895AA1B2B
:1030A000BB1B51E107C0AA1FBB1FA617B70710F033
:1030B000A61BB70B881F991F5A95A9F78095909565
:1030C000BC01CD010895A29FB001B39FC001A39F91
:1030D000700D811D1124911DB29F700D811D112451
:1030E000911D0895A0E0B0E0E8E7F8E10C94701AB3
:1030F000EC01CB01209719F40E944519B8C0FE01DC
:10310000E60FF71F9E0122503109E217F30708F47A
:10311000ACC0D9010D911C91119706171707B8F093
:103120000530110508F49FC0A80144505109461705
:10313000570708F498C002501109061B170B01939A
:1031400011936D937C93CF010E94DD198CC05B01BC
:10315000A01AB10A4E01800E911EA091A908B0914B
:10316000AA08612C712C60E070E0109709F449C046
:10317000A815B905C9F5ED90FC901197670142E0DB
:10318000C40ED11CCA14DB0478F147018A189B08CD
:10319000640142E0C40ED11C1296BC9012971396A3
:1031A000AC91B5E0CB16D10440F0B282A3839182FA
:1031B0008082D9018D939C9309C00E5F1F4F0E0D25
:1031C0001F1DF90111830083EB2DFA2F6115710585
:1031D00031F0DB011396FC93EE93129744C0F09309
:1031E000AA08E093A9083FC06D917C9111976616DB
:1031F000770608F43B01BD0112960D90BC91A02DFD
:10320000B4CF6091A7087091A80868157905E9F412
:1032100068167906D0F440910401509105014115DA
:10322000510541F44DB75EB76091080170910901F5
:10323000461B570BE417F507C0F4F093A808E0937A
:10324000A708F901918380830EC00E9445197C0173
:10325000009759F0A801BE010E943C19CE010E94BE
:10326000DD19C70104C0CE0102C080E090E0CDB7F7
:10327000DEB7EEE00C948C1AFB01DC0102C0019079
:103280000D9241505040D8F70895CF93DF9382308C
:10329000910510F482E090E0E091A908F091AA086D
:1032A00020E030E0A0E0B0E0309739F1408151817A
:1032B00048175907B8F04817590771F4828193816C
:1032C000109729F013969C938E9312972CC090938D
:1032D000AA088093A90827C02115310531F04217AB
:1032E000530718F0A901DB0101C0EF019A01BD01EC
:1032F000DF010280F381E02DD7CF21153105F9F0F0
:10330000281B390B2430310580F48A819B8161159B
:10331000710521F0FB019383828304C09093AA0876
:103320008093A908FE01329644C0FE01E20FF31F0C
:103330008193919322503109398328833AC0209197
:10334000A7083091A808232B41F420910601309161
:1033500007013093A8082093A70820910401309119
:1033600005012115310541F42DB73EB74091080103
:1033700050910901241B350BE091A708F091A80892
:10338000E217F307A0F42E1B3F0B2817390778F03C
:10339000AC014E5F5F4F2417350748F04E0F5F1F9B
:1033A0005093A8084093A7088193919302C0E0E04E
:1033B000F0E0CF01DF91CF910895CF93DF93009795
:1033C00009F487C0FC01329713821282C091A908C8
:1033D000D091AA08209781F420813181280F391FCC
:1033E0008091A7089091A8088217930779F5F09328
:1033F000A808E093A7086DC0DE0120E030E0AE171A
:10340000BF0750F412964D915C9113979D014115A1
:10341000510509F1DA01F3CFB383A28340815181D1
:10342000840F951F8A179B0771F48D919C911197BA
:10343000840F951F02969183808312968D919C91A3
:103440001397938382832115310529F4F093AA08F9
:10345000E093A9083EC0D9011396FC93EE9312970E
:103460004D915D91A40FB51FEA17FB0779F4808198
:103470009181840F951F0296D90111969C938E938A
:103480008281938113969C938E931297E0E0F0E0F3
:103490008A819B81009719F0FE01EC01F9CFCE01E2
:1034A000029628813981820F931F2091A7083091BD
:1034B000A8082817390769F4309729F41092AA0848
:1034C0001092A90802C013821282D093A808C09358
:1034D000A708DF91CF9108952F923F924F925F926C
:1034E0006F927F928F929F92AF92BF92CF92DF9214
:1034F000EF92FF920F931F93CF93DF93CDB7DEB779
:10350000CA1BDB0B0FB6F894DEBF0FBECDBF09940C
:103510002A88398848885F846E847D848C849B8463
:10352000AA84B984C884DF80EE80FD800C811B8171
:10353000AA81B981CE0FD11D0FB6F894DEBF0FBEA0
:0A354000CDBFED010895F894FFCF10
:10354A00010000000000AB0880003F0200E100001B
:10355A000000000001017374645F6D7367732F5478
:10356A00696D6500636437313636633734633535E0
:10357A00326333313166626363326665356137625D
:10358A006332383900726F7373657269616C5F6D8B
:10359A007367732F546F706963496E666F00306189
:1035AA00643531663838666334343839326638639C
:1035BA0031303638343037373634363030350072B9
:1035CA006F7373657269616C5F6D7367732F4C6F8C
:1035DA0067003131616264373331633235393333ED
:1035EA0032363163643631383362643132643632AA
:1035FA0039350039663065393862646136353938AB
:10360A00313938366464663533616661376134301E
:10361A00653439007374645F6D7367732F466C6F1A
:10362A0061743634006664623238323130626661FF
:10363A0039643763393131343632363031373864A8
:10364A003961353834004D65737361676520667278
:10365A006F6D206465766963652064726F7070654A
:10366A00643A206D657373616765206C6172676582
:10367A0072207468616E206275666665722E0072C9
:10368A00696768745F76656C00726F7373657269D7
:10369A00616C5F6D7367732F5265717565737450D2
:1036AA006172616D0000000000A101C30109020CF2
:1036BA00020000000080040F02E702EA0200000094
:1036CA00000805ED0231033403000000003405DC74
:1036DA000537033A03000000003D03C00358045BAA
:1036EA0004000000006807420A7B04000000005E34
:1036FA000471047504780400000000B40F7B1036CE
:10370A000F4F0F410F920F000000009014D714BA08
:10371A0014CA14A614B7140000000010167B1083F4
:06372A0016F1163917002C
:00000001FF
